{
  "contractName": "Hero",
  "abi": [
    {
      "inputs": [
        {
          "internalType": "string",
          "name": "_hero",
          "type": "string"
        }
      ],
      "stateMutability": "nonpayable",
      "type": "constructor"
    },
    {
      "inputs": [
        {
          "internalType": "string",
          "name": "_hero",
          "type": "string"
        }
      ],
      "name": "setHero",
      "outputs": [],
      "stateMutability": "nonpayable",
      "type": "function"
    },
    {
      "inputs": [],
      "name": "getHero",
      "outputs": [
        {
          "internalType": "string",
          "name": "",
          "type": "string"
        }
      ],
      "stateMutability": "view",
      "type": "function",
      "constant": true
    }
  ],
  "bytecode": "0x60806040523480156200001157600080fd5b50604051620008fc380380620008fc8339818101604052810190620000379190620001b9565b336000806101000a81548173ffffffffffffffffffffffffffffffffffffffff021916908373ffffffffffffffffffffffffffffffffffffffff16021790555080600190805190602001906200008f92919062000097565b50506200036e565b828054620000a59062000293565b90600052602060002090601f016020900481019282620000c9576000855562000115565b82601f10620000e457805160ff191683800117855562000115565b8280016001018555821562000115579182015b8281111562000114578251825591602001919060010190620000f7565b5b50905062000124919062000128565b5090565b5b808211156200014357600081600090555060010162000129565b5090565b60006200015e620001588462000227565b620001fe565b9050828152602081018484840111156200017757600080fd5b620001848482856200025d565b509392505050565b600082601f8301126200019e57600080fd5b8151620001b084826020860162000147565b91505092915050565b600060208284031215620001cc57600080fd5b600082015167ffffffffffffffff811115620001e757600080fd5b620001f5848285016200018c565b91505092915050565b60006200020a6200021d565b9050620002188282620002c9565b919050565b6000604051905090565b600067ffffffffffffffff8211156200024557620002446200032e565b5b62000250826200035d565b9050602081019050919050565b60005b838110156200027d57808201518184015260208101905062000260565b838111156200028d576000848401525b50505050565b60006002820490506001821680620002ac57607f821691505b60208210811415620002c357620002c2620002ff565b5b50919050565b620002d4826200035d565b810181811067ffffffffffffffff82111715620002f657620002f56200032e565b5b80604052505050565b7f4e487b7100000000000000000000000000000000000000000000000000000000600052602260045260246000fd5b7f4e487b7100000000000000000000000000000000000000000000000000000000600052604160045260246000fd5b6000601f19601f8301169050919050565b61057e806200037e6000396000f3fe608060405234801561001057600080fd5b50600436106100365760003560e01c80631a126e141461003b578063581bee2f14610057575b600080fd5b610055600480360381019061005091906102ba565b610075565b005b61005f61011d565b60405161006c9190610357565b60405180910390f35b60008054906101000a900473ffffffffffffffffffffffffffffffffffffffff1673ffffffffffffffffffffffffffffffffffffffff163373ffffffffffffffffffffffffffffffffffffffff1614610103576040517f08c379a00000000000000000000000000000000000000000000000000000000081526004016100fa90610379565b60405180910390fd5b80600190805190602001906101199291906101af565b5050565b60606001805461012c9061044d565b80601f01602080910402602001604051908101604052809291908181526020018280546101589061044d565b80156101a55780601f1061017a576101008083540402835291602001916101a5565b820191906000526020600020905b81548152906001019060200180831161018857829003601f168201915b5050505050905090565b8280546101bb9061044d565b90600052602060002090601f0160209004810192826101dd5760008555610224565b82601f106101f657805160ff1916838001178555610224565b82800160010185558215610224579182015b82811115610223578251825591602001919060010190610208565b5b5090506102319190610235565b5090565b5b8082111561024e576000816000905550600101610236565b5090565b6000610265610260846103be565b610399565b90508281526020810184848401111561027d57600080fd5b61028884828561040b565b509392505050565b600082601f8301126102a157600080fd5b81356102b1848260208601610252565b91505092915050565b6000602082840312156102cc57600080fd5b600082013567ffffffffffffffff8111156102e657600080fd5b6102f284828501610290565b91505092915050565b6000610306826103ef565b61031081856103fa565b935061032081856020860161041a565b6103298161050e565b840191505092915050565b6000610341600d836103fa565b915061034c8261051f565b602082019050919050565b6000602082019050818103600083015261037181846102fb565b905092915050565b6000602082019050818103600083015261039281610334565b9050919050565b60006103a36103b4565b90506103af828261047f565b919050565b6000604051905090565b600067ffffffffffffffff8211156103d9576103d86104df565b5b6103e28261050e565b9050602081019050919050565b600081519050919050565b600082825260208201905092915050565b82818337600083830152505050565b60005b8381101561043857808201518184015260208101905061041d565b83811115610447576000848401525b50505050565b6000600282049050600182168061046557607f821691505b60208210811415610479576104786104b0565b5b50919050565b6104888261050e565b810181811067ffffffffffffffff821117156104a7576104a66104df565b5b80604052505050565b7f4e487b7100000000000000000000000000000000000000000000000000000000600052602260045260246000fd5b7f4e487b7100000000000000000000000000000000000000000000000000000000600052604160045260246000fd5b6000601f19601f8301169050919050565b7f4e6f7420746865206f776e65720000000000000000000000000000000000000060008201525056fea26469706673582212200bd010fc8e7a369c0330221144b6eb41482f517665aa9ba87a756734f1d0f1bb64736f6c63430008010033",
  "immutableReferences": {},
  "source": "// SPDX-License-Identifier: UNLICENSED\npragma solidity > 0.7.0 <0.9.0;\n\ncontract Hero {\n    address owner;\n    string hero;\n    constructor(string memory _hero) {\n        owner = msg.sender;\n        hero = _hero;\n    }\n    function setHero(string memory _hero)public\n    {\n        require(msg.sender==owner,\"Not the owner\");\n        hero =_hero;\n    }\n    function getHero() public view returns(string memory)\n    {\n        return hero;\n    }\n}",
  "sourcePath": "/home/hathai15/Desktop/Workspace/Hero/contracts/Hero.sol",
  "compiler": {
    "name": "solc",
    "version": "0.8.1+commit.df193b15.Emscripten.clang"
  },
  "schemaVersion": "3.4.7",
  "updatedAt": "2022-04-19T10:29:52.283Z",
  "networkType": "ethereum",
  "devdoc": {
    "kind": "dev",
    "methods": {},
    "version": 1
  },
  "userdoc": {
    "kind": "user",
    "methods": {},
    "version": 1
  }
}